:020000040000FA
:0600000019EF03F01200ED
:020006001200E6
:0600080049EF00F01200B8
:02000E000000F0
:020010000001ED
:0600180016EF00F01200DB
:02001E000100DF
:0C0020000E0000007A0000000400000048
:04002C00DACFE4FF44
:10003000E2CFDAFFE652F2A428D0F294FD0ED66E9B
:1000400000017A2B000E7B230A0E7A1901E17B5105
:100050001CE17A6B7B6B0001692B0A0E695D15E16F
:10006000696B6A2B0A0E6A5D10E16A6B6B2B0A0ED4
:100070006B5D0BE16B6B662B3C0E665D06E1666BA0
:10008000672B3C0E675D01E1676BE552E5CFDAFF58
:100090001100DACFE4FFE2CFDAFFE9CFE4FFEACFE5
:1000A000E4FFF6CFE4FFF7CFE4FFF5CFE4FFF3CFB3
:1000B000E4FFF4CFE4FFFACFE4FF00EE00F0100E0F
:1000C000E80403E3EECFE4FFFBD700EE10F0020EEE
:1000D000E80403E3EECFE4FFFBD7E652F0A00AD03A
:1000E000F0908278030E00017C5D03E27C2B39D80E
:1000F00001D0D59EE55200EE11F0020EE80403E3B4
:10010000E5CFEDFFFBD700EE0FF0100EE80403E3A0
:10011000E5CFEDFFFBD7E5CFFAFFE5CFF4FFE5CF65
:10012000F3FFE5CFF5FFE5CFF7FFE5CFF6FFE5CF2E
:10013000EAFFE5CFE9FFE5CFDAFF1100C168720EF3
:10014000D36E946A030E936E956A826A836AD08E28
:10015000F28EF28EF086F090F08CF18A8298F28C1A
:100160001200D9CFE6FFE1CFD9FF020EE126DE6A09
:10017000DD6ADECF10F0DDCF11F0113404E2105053
:100180000808020E115405E3DF2A010E01E3DB2A01
:10019000F0D7020EE15C02E2E16AE552E16EE5525F
:1001A000E7CFD9FF1200380E836EDBDF040E826EBC
:1001B000826A380E836ED5DF040E826E826A060E66
:1001C000836ECFDF040E826E826A0C0E836EC9DFEF
:1001D000040E826E826A010E836EC3DF040E826E8D
:1001E000826A840E836EBDDF040E826E826A120004
:1001F000D9CFE6FFE1CFD9FF040EE126FD0EDBCF1C
:1002000006F0FE0EDBCF07F0020E06C0DBFF030E8A
:1002100007C0DBFFD950020FE96EDACFEAFFEE50DC
:10022000ED1003E1300EDE6EDD6AD950020FE96E8B
:10023000DACFEAFF010EEE1801E1ED5003E1310ED5
:10024000DE6EDD6AD950020FE96EDACFEAFF020EE8
:10025000EE1801E1ED5003E1320EDE6EDD6AD95099
:10026000020FE96EDACFEAFF030EEE1801E1ED505E
:1002700003E1330EDE6EDD6AD950020FE96EDACF8C
:10028000EAFF040EEE1801E1ED5003E1340EDE6EDC
:10029000DD6AD950020FE96EDACFEAFF050EEE18DB
:1002A00001E1ED5003E1350EDE6EDD6AD950020F3B
:1002B000E96EDACFEAFF060EEE1801E1ED5003E138
:1002C000360EDE6EDD6AD950020FE96EDACFEAFF34
:1002D000070EEE1801E1ED5003E1370EDE6EDD6A28
:1002E000D950020FE96EDACFEAFF080EEE1801E1ED
:1002F000ED5003E1380EDE6EDD6AD950020FE96E73
:10030000DACFEAFF090EEE1801E1ED5003E1390EF4
:10031000DE6EDD6ADECF10F0DDCF11F010C0F3FF2E
:1003200011C0F4FF040EE15C03E200D0E16AE55283
:10033000E16EE552E7CFD9FF120000016E51E66E83
:10034000E66A56DFE552E552F3CF65F065C083FFFC
:1003500008DF050E826E010E826E840E836E01DF51
:10036000040E826E826A120000016951E66EE66A2E
:100370003FDFE552E552F3CF64F064C083FFF1DE66
:10038000050E826E010E826E120000016A51E66E49
:10039000E66A2EDFE552E552F3CF63F063C083FFD8
:1003A000E0DE050E826E010E826E120000016B51BE
:1003B000E66EE66A1DDFE552E552F3CF62F062C0F9
:1003C00083FFCFDE050E826E010E826E12000A0ED2
:1003D000106E10C00CF066C007F027EC03F003505D
:1003E000E66EE66A05DFE552E552F3CF6DF06DC0CB
:1003F00083FFB7DE050E826E010E826E3A0E836EAB
:10040000B0DE050E826E010E826E12000A0E106EB4
:1004100010C00CF066C007F027EC03F00750E66E42
:10042000E66AE6DEE552E552F3CF68F068C083FF86
:1004300098DE050E826E010E826E12000A0E106E9C
:1004400010C00CF067C007F027EC03F00350E66E15
:10045000E66ACEDEE552E552F3CF6FF06FC083FF60
:1004600080DE050E826E010E826E3A0E836E79DE9C
:10047000050E826E010E826E12000A0E106E10C002
:100480000CF067C007F027EC03F00750E66EE66A51
:10049000AFDEE552E552F3CF6CF06CC083FF61DE56
:1004A000050E826E010E826E1200560E836E59DEAC
:1004B000050E826E010E826E6F0E836E52DE050E89
:1004C000826E010E826E6C0E836E4BDE050E826EA6
:1004D000010E826E740E836E44DE050E826E010E76
:1004E000826E610E836E3DDE050E826E010E826E9F
:1004F000730E836E36DE050E826E010E826E3A0E2C
:10050000836E2FDE050E826E010E826E00017C511D
:10051000E66EE66A6DDEE552E552F3CF60F0F4CFA9
:1005200061F060C083FF1DDE050E826E010E826EDB
:10053000C30E836E16DE040E826E826A12009DDF89
:100540007DDF64DF44DF32DF20DF0EDF9DEF01F06F
:10055000F5DD29DEF28AF294F194D58ED58CD59A08
:10056000D596D580D592D584FD0ED66E9EDFE7DF79
:04057000FDD71200A1
:0C0574001E0EF66E000EF76E000EF86E04
:1005800000010900F550756F0900F550766F03E121
:10059000756701D03DD00900F550706F0900F55026
:1005A000716F0900F550726F09000900F550E96E8E
:1005B0000900F550EA6E090009000900F550736F53
:1005C0000900F550746F09000900F6CF77F0F7CFF6
:1005D00078F0F8CF79F070C0F6FF71C0F7FF72C005
:1005E000F8FF0001735302E1745307E00900F5506E
:1005F000EE6E7307F8E27407F9D777C0F6FF78C09C
:10060000F7FF79C0F8FF00017507000E765BBFD7D2
:020610001200D6
:0E061200000EF36E00EE00F0080E01D812008C
:10062000EA6002D0EE6AFCD7F350E9601200EE6A8D
:02063000FCD7F5
:0E06320013EE00F023EE00F0F86A0F9CBAEC15
:0E06400002F003EC00F0A8EC02F0FBD7120071
:02064E00036A3D
:10065000080EE76ED890073603360C50035C02E3B1
:0A066000036E072AE72EF7D71200F9
:020000040030CA
:0100010008F6
:010003001EDE
:0100050003F7
:00000001FF
